:10000000E8EF02F00000000000EF00F00000000048
:0A0010000000000000000000F3D71C
:10001C000F0E0C6E470E0D6E0D2EFED70C2EFCD750
:06002C00000000001200BC
:0A003200210E0D6E0D2EFED71200F8
:06003C00000000001200AC
:080042000AAE029E000E12003E
:10004A000B840BAE30EF00F0010E036E026A016AF8
:0A005A00006A0A360232FF0E12009F
:0E006400026A016A006A086A036A000E12004E
:1000720033BE02D08A9601D08A8633BC02D08A94DB
:1000820001D08A8433BA02D08A9201D08A8233B8EC
:1000920002D08A9001D08A801CB002D08A8801D016
:1000A2008A988A8ACADF8A9A33B602D08A9601D09F
:1000B2008A8633B402D08A9401D08A8433B202D0C1
:1000C2008A9201D08A8233B002D08A9001D08A808B
:1000D2001CB002D08A8801D08A988A8AAEDF8A9AB6
:0C00E2001CA002D09ADF01D0A3DF1200A6
:1000EE000C6A0E6A0250D8A490EF00F001C002F024
:1000FE0000C001F0006A0E860250D8A490EF00F006
:10010E0001C002F0016A0E960E880250D8B4A2EF1A
:10011E0000F00E50035ED8A4D8A0A7EF00F0D89040
:10012E0002BEACEF00F0003601360236032E97EF1A
:10013E0000F0A7EF00F0010E0C6E8DDFAFEF00F0B8
:10014E00020E0C6E7BDFAFEF00F0040E0C6E72DF52
:02015E0012008D
:0C0160001C9032C033F085DF1C801200C0
:10016C000B820BAEC0EF00F00368026801680068F8
:08017C000A360232FF0E1200E8
:100184000B800BAECEEF00F0026A0AAEFF0E026ED9
:0C019400016E006E0A360232FF0E1200EF
:0C01A0000E0E0D6E0D2EFED7000012009A
:1001AC000FD0800E2D6E19D0C00E2D6E16D0940E61
:1001BC002D6E13D0D40E2D6E10D0800E2D6E0DD052
:1001CC002D50010AEEE02D50020AEEE02D50030AEC
:1001DC00EEE02D50040AEEE0F0D72E04006E2D5008
:1001EC00002600C02DF01C8000C033F03CDF1C90BA
:0A01FC002FC033F038DF1C80120022
:10020600086A096A100E0C6E013408360936045065
:10021600085E0550D8A0053C095ED8B007D004504A
:1002260008260550D8B0053C0926D8900036013678
:060236000C2EEAD71200B5
:10023C000FD0800E2D6E19D0C00E2D6E16D0940ED0
:10024C002D6E13D0D40E2D6E10D0800E2D6E0DD0C1
:10025C002D50010AEEE02D50020AEEE02D50030A5B
:10026C00EEE02D50040AEEE0F0D72E04006E2D5077
:10027C00002600C02DF000C033F0F5DE1C90316A72
:10028C0031502F24E96E000E3020EA6EEE520BE056
:10029C0031502F24E96E000E3020EA6EEECF32F092
:0A02AC0059DF312AEDD71C80120043
:1002B6000900F5CFE6FF0006FBE10106F9E11200B1
:1002C600939A939893909392939493968A9A8A98F2
:1002D6008A968A948A928A909EDE9DDE9CDE8A8227
:1002E6008A808A8AA8DE8A9A96DE8A8AA4DE8A9A12
:1002F60092DE8A8AA0DE8A9A8EDE8A908A8A9BDEBF
:100306008A9A89DE8A8A97DE8A9A8A928A868A8A6F
:1003160092DE8A9A80DE8A968A808A8A8CDE8A9A19
:100326008A908A8A88DE8A9A76DE8A8A84DE8A9A21
:100336008A808A8A80DE8A9A6EDE8A908A8A7BDE44
:100346008A9A8A868A848A828A808A8A74DE8A9AC5
:0603560062DE1C801200B3
:10035C00800E1D6E030E1E6E2D0E1F6E000E206E77
:10036C00C26A1B1C006E0050C116070EC012C08E54
:04037C00C280120029
:10038000830EC2162DC000F000360090003600909B
:100390000050C21205DFC282C2A201D0FDD7C4CF75
:0E03A00001F0006AC3500012000E011212009C
:1003AE00086A096A000E076203645CEF02F00250ED
:1003BE0006180A6E075003267E0ED8A0EDEF01F048
:1003CE00035ED8B060EF02F0F1EF01F0035ED8A04B
:1003DE0064EF02F0028E068E02C00EF001C00BF02A
:1003EE0000C00DF000500402F4CF0CF001500502D5
:1003FE00F4CF00F0F3CF08F00402F3500C26F450C3
:10040E000822000E00220D500502F3500C26F45067
:10041E000822000E002202500402F3500826F45067
:10042E00002202500502016A000E0122F35000263E
:10043E00F45001220D500602F3500826F45000220B
:10044E00026A000E012202220B500602F350002611
:10045E00F4500122000E02220E500602F350012625
:10046E00F450022202BE44EF02F008360036013686
:10047E0002360306D8B464EF02F057EF02F0D880CC
:10048E00800E08640030000E002201220222D8A045
:10049E0057EF02F0023201320032034A60EF02F0EF
:1004AE000AAE029E000E66EF02F0010ED4DD66EF7C
:1004BE0002F0020E54DE66EF02F0040EBFDD1200F3
:1004CE000050086E0150006E016A026A036A0B6AE0
:1004DE000C6A960E036E0A6A00C001F008C000F0A6
:0804EE00086A026AFDDD12003C
:1004F6000B6A0C6A0A6A0350D8B4C5EF02F0028E82
:100506008E0E035E03BE8DEF02F0D8B48DEF02F0BF
:10051600C9EF02F0036C080E035CD8A0A4EF02F04A
:10052600036E013602C001F0026A080E035CD8A011
:10053600A4EF02F00136016A0350D8A4D890AEEFBA
:1005460002F00350D8B4AEEF02F0D8900232013276
:10055600032EA8EF02F00BBC01A0BBEF02F0D8A05F
:10056600BBEF02F0012AD8B4022A02BED8EF02F08D
:100576000AAEDDEF02F0021E011E012AD8B4022ADD
:10058600DDEF02F0026A016ADDEF02F00B800BAECE
:10059600E1EF02F0026A0AAEE1EF02F0FF0E026E30
:1005A600016E0A360232E1EF02F0010E0C6EE7DD53
:1005B600E3EF02F0000E0C6EE3EF02F0FF0E0C6E9E
:0A05C6000150006E0250016E120099
:1005D00083EC03F02B6A2C6A928A75DE010E336E6F
:1005E00048DD0C0E336E45DD010E2D6E010E2E6EB4
:1005F000150E2F6E000E306E21DEB0DE300EC16E95
:10060000040E2D6EBDDE00C02BF001C02CF05FDFAC
:100610001A0E046E670E056E1C0E066E820E076EB5
:10062000C6DE69DF00C02BF001C02CF00150270AA4
:1006300002E1100E00180AE1310E216E300E226E1A
:10064000300E236E200E246E256A3AD0E80E046E1A
:10065000030E056E2BC000F02CC001F0D4DD300E6F
:10066000002600C021F0640E046E000E056E2BC043
:1006700000F02CC001F0C7DD0A0E046E000E056EFE
:10068000C2DD08C000F009C001F0300E0024226E67
:100690002E0E236E0A0E046E000E056E2BC000F0A7
:1006A0002CC001F0B0DD0A0E046E000E056EABDD4D
:1006B00008C000F009C001F0300E0024246E256A45
:1006C000010E2D6E060E2E6E210E2F6E000E306E58
:1006D000B5DD010E2D6E0A0E2E6EDF0E2F6E66DD5D
:1006E000430E326E3DDD340E0C6EF10E0D6E0D2E8E
:0E06F000FED70C2EFCD70000000082D7FFD7EB
:1007060010EE15F0070E006E010E016EFE0EF66E6F
:0E071600060EF76E000EF86E5BEC01F012009E
:0606FE0054454D503A0086
:0107040030C4
:020000040030CA
:0E000000000C1F1EFF8381FF0FC00FE00F409A
:00000001FF
