:040000007EEF00F09F
:10000800F2A205D0D59E040ED56EF292D58EF0A040
:0E00180005D0D59E020ED56EF090D58E11004B
:10002600020ED56E0B0ED76EDC0ED66EF294120053
:10003600F28ED09EF292F288F086F08CF090F18AE1
:08004600F18C938093821200FB
:10004E0025D03F0E8C6E44D0060E8C6E41D05B0ECA
:10005E008C6E3ED04F0E8C6E3BD0660E8C6E38D0B2
:10006E006D0E8C6E35D07D0E8C6E32D0070E8C6E72
:10007E002FD07F0E8C6E2CD06F0E8C6E29D03F0E33
:10008E008C6E156A25D0FF0E156E22D01650000A02
:10009E00D8E01650010AD8E01650020AD8E01650E1
:1000AE00030AD8E01650040AD8E01650050AD8E024
:1000BE001650060AD8E01650070AD8E01650080A5D
:1000CE00D8E01650090AD8E016500A0AD8E0DBD755
:0200DE0012000E
:1000E0000900F5CFE6FF0006FBE10106F9E1120089
:0C00F0000F0EC112956A836AF19E120087
:1000FC00FF0E156EF7DF91DF98DFF2A409D0152AF9
:10010C0015C016F09EDF0B0ED76EDC0ED66EF29479
:04011C00F4D7FFD73E
:020000040030CA
:0E000000000C1F1EFF8381FF0FC00FE00F409A
:00000001FF
